:020000040800F2
:10000000680C0020610100088701000889010008D0
:1000100000000000000000000000000000000000E0
:100020000000000000000000000000008B0100083C
:1000300000000000000000008D010008151C0008F1
:100040008F0100088F0100088F0100088F01000850
:100050008F0100088F0100088F0100088F01000840
:100060008F0100088F0100088F0100088F01000830
:100070008F0100088F0100088F0100088F01000820
:100080008F0100088F0100088F0100088F01000810
:100090008F0100088F0100088F0100088F01000800
:1000A0008F0100088F0100088F0100088F010008F0
:1000B0008F0100088F0100088F01000800F002F88E
:1000C00000F03EF80CA030C8083824182D18A246BD
:1000D000671EAB4654465D46AC4201D100F030F895
:1000E0007E460F3E0FCCB6460126334200D0FB1AA7
:1000F000A246AB4633431847D4210000F421000048
:10010000103A02D378C878C1FAD8520701D330C860
:1001100030C101D504680C60704700000023002442
:1001200000250026103A01D378C1FBD8520700D32E
:1001300030C100D50B6070471FB51FBD10B510BD95
:1001400000F007F91146FFF7F7FF02F029F800F079
:100150001FF903B4FFF7F2FF03BC00F025F900001C
:100160000E4880F308880E480168090E0D4A914236
:1001700005D10D480D4901600D480E4901600E483A
:1001800080470E480047FEE7FEE7FEE7FEE7FEE792
:100190000B480C490C4A0D4B70470000680C0020BE
:1001A000040000001F0000001810024001000000C1
:1001B0000000014000000000CD1C0008BD00000848
:1001C00068060020680C00206808002068080020ED
:1001D00010B5202A04DB0846203AD040002110BD8B
:1001E0000B462024D340D040A21A91400843194620
:1001F00010BD002203098B422CD3030A8B4211D37A
:1002000000239C464EE003460B433CD400224308A7
:100210008B4231D303098B421CD3030A8B4201D397
:1002200094463FE0C3098B4201D3CB01C01A52412F
:1002300083098B4201D38B01C01A524143098B427F
:1002400001D34B01C01A524103098B4201D30B0168
:10025000C01A5241C3088B4201D3CB00C01A52418D
:1002600083088B4201D38B00C01A524143088B4252
:1002700001D34B00C01A5241411A00D201465241EB
:10028000104670475DE0CA0F00D04942031000D30A
:100290004042534000229C4603098B422DD3030A5F
:1002A0008B4212D3FC22890112BA030A8B420CD36F
:1002B000890192118B4208D3890192118B4204D398
:1002C00089013AD0921100E08909C3098B4201D318
:1002D000CB01C01A524183098B4201D38B01C01A52
:1002E000524143098B4201D34B01C01A52410309C9
:1002F0008B4201D30B01C01A5241C3088B4201D378
:10030000CB00C01A524183088B4201D38B00C01A24
:100310005241D9D243088B4201D34B00C01A5241FB
:10032000411A00D20146634652415B10104601D388
:100330004042002B00D54942704763465B1000D312
:10034000404201B50020C046C04602BD704770471C
:100350007047754600F024F8AE46050069465346DE
:10036000C008C000854618B020B5FFF711FF60BC7B
:1003700000274908B6460026C0C5C0C5C0C5C0C5CF
:10038000C0C5C0C5C0C5C0C5403D49008D46704709
:1003900010B50446C046C0462046FFF7DAFE10BD41
:1003A000004870470806002001491820ABBEFEE750
:1003B00026000200704700F0B4F9FCE710B500F029
:1003C00065F9012810D0094C207801280CD101F0E2
:1003D000ABFCA26861688918FF31F531884203D30C
:1003E0000020207000F0BEF910BD0000CC000020FD
:1003F00010B504490120087000F006F8FFF7DEFF91
:1004000010BD0000CC00002010B5044C207801285D
:1004100002D101F089FCA06010BD0000CC000020DA
:1004200010B500F086F900F073F901F085FC01F0D9
:10043000DDFA00F01BF9FFF7DBFF10BD10B500F08F
:1004400070F901F095FC00F02BF9FFF7B7FF10BD34
:10045000FFB585B0074601A801F030F97D21C9003C
:100460000398FFF7C6FE04900024124E6500A919F8
:10047000705D49784118491C79430498FFF7B9FE2B
:10048000002911D1069980B208800B49401E88428C
:100490000AD86000315C07980170A8194178089863
:1004A0000170012009B0F0BD641CE4B2122CDDD350
:1004B0000020F7E7CE210008FF03000030B58DB023
:1004C00000240C940B940A94FF200AAB0BAA0CA9ED
:1004D000F530FFF7BDFF002803D1AF211AA0FFF7C9
:1004E0006AFF244822490160047644768476012517
:1004F000C576047744778460C46008A9097B491EE7
:100500000904016108A9097A491E09054161694682
:10051000098E416000F056FD059406940795164833
:1005200000900194154802900420039004940895CB
:100530000E20099069460F4800F04AFC0D4800F073
:10054000F4FD0DB030BD00002E2E5C2E2E5C2E2E44
:100550005C2E2E5C536F757263655C41524D434D4A
:10056000305F53544D333246305C63616E2E63000E
:100570000064004094010020E0CC0000E0FF000097
:1005800070B588B00E460C4D0024034601AA002128
:100590000A4800F097FC002806D10198A84203D130
:1005A0000398002800D10124012C01D10598307056
:1005B000204608B070BD00006706000094010020CE
:1005C00010B588B0104B0293002304930593069155
:1005D000024601AB02A90D4800F07CFB002810D1B7
:1005E00001F0A2FB0446323405E000F09AF801F075
:1005F0009BFBA04205D80548019900F086FD002824
:10060000F3D108B010BD0000E10700009401002004
:100610007047000009480078002807D0012807D05B
:10062000022807D0032807D0402070474020704799
:10063000082070470020704700207047D800002035
:1006400009480078002807D0012807D0022807D0E1
:10065000032807D04020704740207047082070478B
:100660000020704700207047D800002010B501F02E
:10067000EBFCFFF723FF044C0120207001F01CFA73
:100680000020207010BD0000D800002010B500240C
:1006900001F0E8FC002800D00124204610BD000035
:1006A00038B569460C48FFF76BFF0C4C012805D1A3
:1006B000207068460178084801F0DEFC694606486B
:1006C00001F026FA012806D1002020706846017842
:1006D000014801F0D1FC38BD08010020D8000020FD
:1006E00070B505460C46094E3078012803D1E1B2B9
:1006F0002846FFF765FF3078002803D1E1B228468D
:1007000001F05AFA01F022FD70BD0000D80000206F
:1007100010B500F001F810BD10B5642001F00EF91D
:1007200010BD10B500F001F810BD10B501F00CF9C6
:1007300010BD10B500F001F810BD72B6704762B67A
:10074000704770B505460C46164605E020782870BF
:10075000641C6D1CFFF7E5FF3046761EB6B200281C
:10076000F4D170BD38B501F045F9002825D000F06E
:1007700029F8002821D0FFF74BFF00F003FD01F01E
:10078000EFFA01210D4882690A43826180690840BD
:10079000009001F027F901460120C0224007FFF731
:1007A000D0FF032006490A68824302430A6001F031
:1007B00019F94468FFF7C3FFA04738BD0010024095
:1007C0000000014010B50120400307490969884332
:1007D00006D00020002805D001F0AAF8012010BDA5
:1007E0000120F7E7002010BD00080048064900205E
:1007F000C861064801690422114301610169402270
:100800001143016170470000E80000200020024011
:10081000064A0021D16106490A6902231A430A6186
:10082000486108694022104308617047E8000020D1
:100830000020024010B5054B0022DA61044A13691A
:10084000012423431361018010BD0000E800002053
:100850000020024010B500200A4AD168CB060A49A0
:1008600004D5C86902231843C8611020D3685B0708
:1008700005D5CB6901242343CB6104210843D06013
:1008800010BD000000200240E800002070B50446C2
:1008900000F03AFD0546104E0AE0601C08D0002C1E
:1008A00004D000F031FD401BA04201D9032070BDEF
:1008B000F068C007F1D1F068800601D52020F06013
:1008C000F068C00602D4F068400703D5FFF7C2FF06
:1008D000012070BD002070BD00200240FEB504461E
:1008E0000D4616461F46680A400200902068401CCC
:1008F00005D12046009900F015F900282CD0216878
:100900000098814206D02046009900F01DF9044667
:10091000002C23D02068281A05192D1D0098FF30BF
:10092000FF3002300190FFF7FCFE281B0121001F61
:100930004902884207D32046019900F005F9044690
:10094000002C0DD0251D3078761C28706D1C7F1E64
:10095000002FE8D10120FEBD0020FEBD0020FEBD1D
:100960000020FEBD10B50C480068401C04D00A48A9
:1009700000F05EF900280AD008480068401C04D046
:10098000064800F055F9002803D0012010BD0020D2
:1009900010BD002010BD0000C0030020BC010020DD
:1009A00070B505460C460D48411B601E814201D2C0
:1009B000002070BD284600F053F806462819401E56
:1009C00000F04EF80146FF2E05D0FF2903D0304637
:1009D00000F006F870BD002070BD0000FFFF0308A6
:1009E000F0B585B00C46012500210391A04200D945
:1009F0000025052801D3162C00D90025012D2CD166
:100A000000F04CF80746204600F048F8064620461D
:100A100000F05EF83018401EC01B401C4001060C60
:100A20000020009001970120029000F059FC002462
:100A3000EF020EE0FFF775FE03A9684600F0B4FB75
:100A4000002801D0002506E00198C0190190641C1F
:100A5000A4B2B442EED300F0F7FB284605B0F0BDD7
:100A600070B5054600240C4EFFF75BFE21460C20B6
:100A700041437058A84209D8891949684018A842CA
:100A800004D90C204443A019007A70BD641CE4B260
:100A9000122CE9D3FF2070BDF421000870B5064682
:100AA00000240A4DFFF73DFE0C2060434019007AF8
:100AB000B04203D10C204443285970BD641CE4B2F9
:100AC000122CEFD30020C04370BD0000F4210008B9
:100AD00070B5064600240A4DFFF723FE0C20604344
:100AE0004019007AB04204D10C2044436019406898
:100AF00070BD641CE4B2122CEED3002070BD000067
:100B0000F42100080048704700280008002003492D
:100B1000C04308600249086070470000BC01002023
:100B2000C003002010B5CA0501D0002010BD026826
:100B30008A4201D1012010BD02C001225202FFF7FA
:100B400000FE012010BD000070B504460D460E48A1
:100B5000844201D10D4C0AE00D48854202D10A4C75
:100B6000054604E0204600F063F8002807D0294637
:100B70002046FFF7D7FF002803D0204670BD002095
:100B800070BD002070BD0000C0030020BC0100202B
:100B9000002800080B480168426851188268511803
:100BA000C268511802695118426951188069401889
:100BB0000449C03109680818002801D00020704796
:100BC000012070470028000870B504460D461646FF
:100BD0001348011B681E814201D2002070BD2046CF
:100BE000FFF73EFFFF2811D06019401EFFF738FFC6
:100BF000FF280BD0600A40020A49884208D12B46E0
:100C0000324621460848FFF769FE70BD002070BDDE
:100C10002B46324621460548FFF760FE70BD0000B6
:100C2000FFFF030800280008C0030020BC010020CB
:100C3000F8B50646012000903068FFF711FFFF2845
:100C400014D000F04DFB00243168A0000F1880196B
:100C50004568FFF766FD2A4600233946022000F06A
:100C6000FDFA002804D0002000900AE00020F8BD22
:100C70003868A84202D00020009002E0641C802C5A
:100C8000E2D300F0E1FA0098F8BD000008B50020BA
:100C900000900E480168491C15D0416882685118BF
:100CA000C268511802695118426951188269511875
:100CB000C0694018C043401C00906A4604210448A3
:100CC000FFF782FF08BD012008BD0000C00300201F
:100CD000C0280008F0B52024255C0468A468012D14
:100CE00008D0022D06D0416A0122920411434162CC
:100CF0000120F0BD0125AD060126F606254026405F
:100D0000354301D1E5005CD5A401A40F022C06D91E
:100D1000416A0122D205114341620120F0BD012642
:100D20003546A5401D608B68002B14D0CD68076840
:100D30002B434D68ED002B432501FF3581357B5159
:100D400023011C46FF3407680D6985343D51097D38
:100D500001290AD00FE00B88CD685B052B432501E4
:100D6000FF35076881357B51EAE701680D59FF2798
:100D700001373D430D51D4791179240621439479EB
:100D8000557924042D022C4321431C46FF34056869
:100D90008D342951D47811782406214394785278DF
:100DA00024041202144321431A46FF320468893294
:100DB000A1500068FF338133C1583143C150002036
:100DC000F0BD416A01225205114341620120F0BD8C
:100DD00030B503682022125C012A08D0022A06D00E
:100DE000416A0122920411434162012030BDDA1DA3
:100DF000FF32FA3214680120044314600C7DE406CB
:100E0000E40EA040D4698443D461CC69002C1AD18B
:100E1000D4688443D4608C898D882404ADB22C437B
:100E20004D69ED00ED18FF35FF3502352C640C8956
:100E30000D882404ADB22C434D69ED00ED18FF354B
:100E4000FF3502356C64CC69012C1AD1D468044397
:100E5000D4600C888D882404ADB22C434D69ED001C
:100E6000ED18FF35FF3502352C640C898D8924047B
:100E7000ADB22C434D69ED00EB18FF33FF33023365
:100E80005C648B69002B0CD05368034353600B697F
:100E9000002B0AD0536903435361096A012908D022
:100EA0000AE0536883435360F1E753698343536116
:100EB000F3E7D1690143D161106840084000106038
:100EC000002030BDF0B52024245C012C08D0022C79
:100ED00006D0416A01229204114341620120F0BD13
:100EE00001246405002904D005682D69AD075AD096
:100EF00003E00568ED68AD0750D00C012546FF35CD
:100F00000668B135765904273E409660002E4FD0D2
:100F100006687659F608566006687559AD07ED0FF4
:100F2000D5602546FF350668B53576593607360F44
:100F30001661066876593604360E9661066875594C
:100F40002D0C55612246FF320568B932AD581D702F
:100F50000568AD582D0A5D700568AD582D0C9D7063
:100F60000568AA58120EDA70FF340268BD341259AF
:100F70001A7102681259120A5A7102681259120C37
:100F80009A7102681259120EDA712022002914D0C7
:100F900000680169114301610020F0BD416A2143ED
:100FA00041620120F0BD416A214341620120F0BD50
:100FB00006687659760D1660AEE70068C168114381
:100FC000C160E9E7F8B50446002C05D02546203578
:100FD0002878002802D004E00120F8BD204600F067
:100FE000A3F82068016802229143016000F08CF9A7
:100FF000064601277F040BE000F086F9801B0A28D3
:1010000006D9606A38436062052028700120F8BD67
:10101000206840688007EFD42068016801221143EE
:10102000016000F071F906460BE000F06DF9801BDD
:101030000A2806D9606A38436062052028700120BA
:10104000F8BD20684068C007EFD0207E80210128CD
:101050003DD0206802688A430260607E40210128FA
:101060003AD0206802688A430260A07E20210128CD
:1010700037D0206802688A430260E07E1021012890
:1010800034D0206802680A430260207F08220128C9
:1010900031D02068016891430160607F04210128FC
:1010A0002ED0206802688A430260E168A068626905
:1010B00008432169114308436168491E08432168B8
:1010C000C86100206062012028700020F8BD2068FF
:1010D00002680A430260C0E7206802680A430260AF
:1010E000C3E7206802680A430260C6E72068026816
:1010F0008A430260C9E72068016811430160CCE7B8
:10110000206802680A430260CFE7034600202022DD
:10111000D25C012A01D0022A05D11A688906926898
:10112000914300D001207047704770B504462646B1
:1011300020363078012806D0606A0121C9040843AE
:101140006062012070BD022030702068016849088B
:101150004900016000F0D8F805460DE000F0D4F831
:10116000401B0A2808D9606A0121490408436062CB
:1011700005203070012070BD20684068C007EDD1A7
:10118000606270BD10B500210648C94301610022AC
:101190000261C160C2608162826200F0DBF80020FF
:1011A00010BD000000100240F8B505460F460126AC
:1011B0002248017E01290BD0012101762868204CAC
:1011C000012807D02046FFF761FB002813D030E04C
:1011D0000220F8BD2046FFF759FB002829D1FFF770
:1011E00005FB2046FFF752FB06461648016904221C
:1011F000914301611DE00020C04338606C6812E03B
:101200002046FFF705FB0E48FFF740FB06460D485A
:101210000169022291430161300001D03C6008E085
:101220000120C0022418A8686968C0024018A042C2
:10123000E6D80248002101763046F8BDE8000020DB
:1012400050C300000020024003480169802211437E
:10125000016100207047000000200240F0B51FB47B
:10126000074615461E4600241A48017E012907D06C
:10127000012101761848FFF709FB002803D025E07B
:10128000022005B0F0BD012F03D0022F03D00427A8
:101290001AE0012718E0022716E02201284631460D
:1012A000FEF796FF81B2019862001018FFF7C2FAAC
:1012B0000948FFF7EBFA09490A69520852000A6126
:1012C000002803D1641CE4B2BC42E6D301490022E9
:1012D0000A76D6E7E800002050C300000020024054
:1012E000002006490A69120607D5054A4A60054AE0
:1012F0004A600969090600D50120704700200240B4
:1013000023016745AB89EFCD00B500F00DFD00BDB1
:1013100010B506480168102211430160002000F05A
:1013200007F800F047F8002010BD00000020024040
:1013300010B5044600F096F87D21C900FEF759FF6C
:1013400000F096F800222146501E00F087F8002099
:1013500010BD000010B500F079F920210924E40641
:10136000A162114800F0CAF8104800F0C7F8204602
:1013700000F0C4F8012149060D48C2698A43C261E0
:101380000912C2698A43C2618A0043699343436177
:101390004A0043699343436142698A4342618169D8
:1013A00049084900816110BD000800480004004858
:1013B00000100240F0B587B00121254882690A4338
:1013C00082618069084000904C04204600F06EF86D
:1013D000600000F06BF8A00000F068F8204600F014
:1013E00081F8200200F07EF8202501950127029760
:1013F00000240394049405940926F60601A93046B6
:1014000000F0D0F8B562280201900294059401A979
:10141000104800F0C7F80C200190022502950394B3
:1014200004940594069701A9304600F0BBF8032008
:101430000002019002950320039004940594042077
:10144000069001A9044800F0ADF807B0F0BD000017
:1014500000100240000800480004004810B500F0E9
:1014600091FA10BD0148006870470000C0000020DC
:1014700010B50949401E884201D9012010BD074C12
:1014800060610321081F00F07DFA0020A0610720A1
:101490002061002010BD0000FFFFFF0000E000E021
:1014A00010B5FFF735FF00F0B7FB10BD08B50449D4
:1014B0004A6902434A6149690140009108BD000040
:1014C0000010024002498A6A02438A6270470000A3
:1014D0000010024002498A6A82438A627047000013
:1014E0000010024008B50449CA690243CA61C969CB
:1014F0000140009108BD00000010024070B50124B9
:101500000921C906884207D165042846FFF7DAFF9A
:101510002846FFF7DFFF39E01D49884207D1050261
:101520002846FFF7CFFF2846FFF7D4FF2EE01949E2
:10153000884207D105022846FFF7C4FF2846FFF777
:10154000C9FF23E01449884208D101252D0528460A
:10155000FFF7B8FF2846FFF7BDFF17E00F498842A5
:1015600007D145022846FFF7ADFF2846FFF7B2FF37
:101570000CE00B49884208D10125AD052846FFF74C
:10158000A1FF2846FFF7A6FF00E00024204670BD1B
:101590000004004800080048000C00480010004803
:1015A00000140048F0B500233EE001249C40224096
:1015B000002A38D04F6814460668644365006519F0
:1015C000AE4367433E4306604E68012E01D0022EB3
:1015D00005D18F6886686743AE433E4386600F69D6
:1015E000C668AE4325467D432E43C6604D68022D36
:1015F00019D1FF2A0AD84D69066A5443544322017F
:10160000121B96436C43264306620CE04D69140A94
:1016100022466243624362431401A61A446A6A4343
:10162000B443144344625B1C0A681446DC40BCD1DA
:101630004A68012A01D0022A06D10A68C9684368AB
:1016400093434A43134343600120F0BD30B518482B
:1016500001680122114301600168F822914380234F
:101660001943016013494160134901600168DC02BC
:10167000A1430160002141604163446B5D02AC43C2
:101680004463446B94431C434463426B52085200CE
:101690004263426B04239A434263C1620163FF23A6
:1016A0001B0482681A4382608160012030BD000003
:1016B000001002400CF8FFF0FFFFF6FE10B50446E4
:1016C00000F0BCF9206000F09DF9606000F0A8F91E
:1016D000A06010BDF8B5054600240127384EFF0371
:1016E000002D0FD1284600F071F801280DD00228F6
:1016F00015D003280DD000F0A1F900F083F900F017
:101700008FF90446102D10D028E000F097F9044618
:10171000F8E700F065F80028F4D03446F2E700F06E
:1017200067F80028EED03C46ECE7284600F04EF87B
:101730002449401815D001210904401A15D08842C7
:1017400005D100F04DF8002808D0344606E000F03E
:1017500075F900F057F900F063F90446122D0AD02C
:1017600022E000F06BF90446F8E700F041F80028A9
:10177000F4D03C46F2E7284600F028F81249401819
:1017800014D001218904401A14D0884205D100F0F8
:1017900027F8002808D0344606E000F04FF900F0A2
:1017A00031F900F03DF904462046F8BD00F046F955
:1017B0000446F9E700F01CF80028F5D03C46F3E7B2
:1017C00000127A000000FFEF0000FCED0349096BF6
:1017D0000322824011400006084370470010024077
:1017E000024800688007C00F7047000000100240E8
:1017F0000248006A8007C00F7047000000100240D6
:101800000149086070470000C0000020FEB5044692
:101810000D46002600202168C907C90F002970D194
:10182000EA686968AB6911432A691A43114322685F
:10183000354B1A4011432160A968626803231B03DA
:101840009A430A4362606969A2681B119A430A437A
:10185000A2602E498C4202D1FFF73CFF34E02C49B4
:101860008C4203D11020FFF735FF2DE029498C422F
:1018700003D11220FFF72EFF26E027498C4204D126
:101880006846FFF71BFF02981EE024498C4204D1F2
:101890006846FFF713FF029816E021498C4204D1F5
:1018A0006846FFF70BFF02980EE01E498C4204D1F8
:1018B0006846FFF703FF029806E01B498C4203D1FC
:1018C0006846FFF7FBFE029800281AD02968002915
:1018D00017D00126AA69F3039A420CD140004A08A6
:1018E0008018FEF786FC80B2104901400007420FC5
:1018F0000A43E26005E04A081018FEF77AFC80B25D
:10190000E0603046FEBD0000F369FFEF00380140A3
:101910000044004000480040004C0040005000409F
:101920000014014000180140001C0140F0FF0000BD
:1019300020200921C90688627047000001494880BB
:1019400070470000C400002010B500F0EDF90C4C09
:10195000616888420DD320780921C906002809D082
:10196000002020702020886200F0DEF96188401895
:10197000606010BD0120207020208861F4E7000025
:10198000C40000208307FF22DB0E9A408907090E5E
:10199000994000280BDA0007000F08388308084830
:1019A0009B001818C36993430B43C36170478308B6
:1019B00004489B001818036893430B430360704767
:1019C00000ED00E000E400E010B5FFF75FF900284B
:1019D00002D0FEF7C7FF10BD002010BD10B5FEF706
:1019E000DFFF10BD10B5FFF78DF810BD10B5FFF784
:1019F0008DF810BD10B5FFF7CDF810BD10B5FFF78D
:101A0000E3F810BD04494968F0221140034A09096E
:101A1000515CC8407047000000100240AE21000831
:101A200004494968072212021140034A090A515C1D
:101A3000C840704700100240BE21000810B5094898
:101A400041680C2001400848002906D0042904D030
:101A5000082903D00C2900D1044810BD00F008F873
:101A600010BD00000010024000127A00006CDC0281
:101A700010B50E4C60680321C90308400122D2034F
:101A8000811A0B4804D0891A02D0914200D109482A
:101A9000E16A0907090F491CFEF7ABFB61680F22D9
:101AA00092041140890C891C484310BD001002406B
:101AB00000127A00006CDC0210B588B00C4C206873
:101AC000400840002060E1200002019000210291C6
:101AD000039104910C2005900691079101A92046DD
:101AE000FFF794FE206801210843206008B010BD74
:101AF00000440040024600200449CB699B06DB0FEE
:101B0000002B02D0888C10700120704700440040E8
:101B1000F3B581B00F461B4C002560781A4E0028A3
:101B20000FD020783018401CFFF7E4FF012818D0B0
:101B300000F0FAF861686431884200D965700020CD
:101B4000FEBD1148FFF7D6FF0128F8D13078401EBE
:101B50003F28F4D800F0E8F860602570012060703C
:101B6000EDE72078401CC2B2227030789042E6D176
:101B7000711C0198FEF7E5FD657020783870012032
:101B8000FEBD0000E0000020C405002070B5094D36
:101B9000288500F0C9F804460A3405E0FEF7C1FDC7
:101BA00000F0C2F8A04204D8E8690006C10F00297D
:101BB000F4D070BD0044004070B506460D46402D7F
:101BC00003D9842108A0FEF7F6FB2846FFF7DEFFC5
:101BD000002406E0FEF7A5FD305DFFF7D7FF641C8B
:101BE000A4B2AC42F6D370BD2E2E5C2E2E5C2E2EEF
:101BF0005C2E2E5C536F757263655C41524D434D94
:101C0000305F53544D333246305C72733233322E70
:101C1000630000007047000010B5012125480268EC
:101C20008A430A43026000680840002803D16A2101
:101C300021A0FEF7C0FB2348016801229204114352
:101C40000160016892101143016001688903C90FA6
:101C50000029FAD0012142687B23DB039A43292320
:101C60001B041A434260C26A120912010A43C2628B
:101C70000168012212061143016001688901C90F40
:101C80000029FAD04168F02291434160416807225F
:101C900012029143416002214268920892000A4375
:101CA00042600C22416811400829FBD10648FFF729
:101CB000A7FD10BD002002402E2E5C6D61696E2EC6
:101CC0006300000000100240006CDC021248016852
:101CD0000122114301604168104A114041600168CE
:101CE0000F4A114001600168012292049143016092
:101CF00041683F22120491434160C16A0909090108
:101D0000C162016B074A11400163416B49084900F8
:101D10004163002181607047001002400CB8FF0849
:101D2000FFFFF6FEACFEF0FF00B500F021F8014821
:101D3000006800BDDC00002000B500F011F8064886
:101D4000044941610021816105220261034801606B
:101D500000BD00007FBB000000E000E0DC000020D0
:101D600002480021016141618161704700E000E0AB
:101D700004480069C00303D503480168491C016099
:101D80007047000000E000E0DC00002010B5084CC7
:101D9000FF21E1704168E21DA06C00F043F9207161
:101DA00000206071A071082120464030818010BD64
:101DB0004801002070B500F0CFF90E4C01252570C8
:101DC000FF20E0700021102020716171FEF722FCDD
:101DD000A071FEF735FCE071FEF732FC000A2072BC
:101DE0006572A5722046082140308180FFF7FEFD14
:101DF00070BD00004801002010B5064C0020207086
:101E000000F0AAF9FF20E0700121204640308180D7
:101E100010BD0000480100200748FF21C17007499C
:101E2000816400210171417181710721C01C4160F1
:101E300008213D308180704748010020C6210008FC
:101E40000648FF21C1700021017142784271817101
:101E5000C171017206214030818070474801002025
:101E600070B50446FEF7D6FB6178801E884203DA1F
:101E7000222000F077F970BD104DFF20E87001219D
:101E8000284640308180617800290AD0A21CA86CC5
:101E9000FFF7B4FD00280CD06178A86C4018A86446
:101EA00070BDFFF791FD0028FAD1312000F05AF9FA
:101EB00070BD312000F056F970BD000048010020CF
:101EC00010B5094C4168A06CFFF788FD002806D0CA
:101ED000FF20E070012120464030818010BD31207C
:101EE00000F040F910BD00004801002070B5054623
:101EF000FEF790FB0C4C411E6A1CA06CFFF77EFDA8
:101F000000280CD0FF20E070FEF784FBA16C401E7F
:101F10004018A064012120464030818070BD3120EE
:101F200000F020F970BD00004801002010B53120FC
:101F300000F018F910BD000010B5FEF713FC0449BD
:101F4000FF20C870024801214030818010BD000090
:101F50004801002070B5084CFF20E0700025257175
:101F60006571FEF757FBA071E57125726572072157
:101F700020464030818070BD480100200449FF2286
:101F8000CA704068886402480121403081807047EF
:101F90004801002070B50446FEF73CFB6178401E06
:101FA000884203DA222000F0DDF870BD094D616837
:101FB000A9646278281DFEF7C4FBFF20E8706178F1
:101FC000A86C4018A86460782946401C403188807D
:101FD00070BD00004801002010B5002000F0C2F8DC
:101FE00010BD000070B50546FEF714FB6A78401E70
:101FF000904203DA222000F0B5F870BD084C201D95
:10200000A16CFEF79EFBFF20E0706978A06C401881
:10201000A06468782146401C4031888070BD000073
:1020200048010020F8B504460E461746002505E095
:102030002078641C4019C5B2FEF773FB761E701C35
:10204000F6D13D600120F8BD054A00201070906473
:1020500011464031C8708880907050707047000001
:102060004801002003480078002801D00120704773
:10207000002070474801002070B50178324CFF29DC
:102080000FD02278012A5ED1F42921D013DCD02987
:1020900036D009DCC92930D0CC293DD0CF293ED15A
:1020A00037E0FFF787FE3DE0D1292FD0D2292AD093
:1020B000F32934D112E0F5390B0000F064F80A0678
:1020C0000C303030123015181B30FFF78BFF29E031
:1020D000FFF760FF26E0FFF751FF23E0FFF756FE12
:1020E00020E0FFF799FE1DE0FFF776FF1AE0FFF70B
:1020F000A7FE17E0FFF780FE14E0FFF7F7FE11E000
:10210000FFF7AEFE0EE0FFF725FF0BE0FFF7D8FE6E
:1021100008E0FFF711FF05E0FFF708FF02E02020CD
:1021200000F020F8084D4035E878012802D1102051
:1021300000F018F80421695E002904DD0120E87030
:10214000E01C00F01BF870BD480100200148002190
:10215000C170704788010020014900204870704715
:10216000480100200449FE22CA7008710248022179
:1021700040308180704700004801002010B589B2CE
:10218000FEF7AEFA10BD30B47446641E2578641CA8
:10219000AB4200D21D46635D5B00E31830BC1847BC
:1021A000FFF77EF9FEF73CF9FEF748F9FCE700007F
:1021B00000000000000001020304060708090000F7
:1021C0000000010203044F70656E424C540005028A
:1021D0000602060307030803090309040A040B04A3
:1021E0000C040C050D050E050F050F061006100753
:1021F000100800000028000800080000050000008A
:102200000030000800080000060000000038000848
:10221000000800000700000000400008000800005F
:102220000800000000480008000800000900000045
:1022300000500008000800000A00000000580008D4
:10224000000800000B00000000600008000800000B
:102250000C00000000680008000800000D000000ED
:1022600000700008000800000E0000000078000860
:10227000000800000F00000000800008008000003F
:1022800010000000000001080080000011000000A4
:102290000080010800800000120000000000020819
:1022A0000080000013000000008002080080000091
:1022B000140000000000030800800000150000006A
:1022C000008003080080000016000000EC220008D7
:1022D000C0000020280000000001000814230008AE
:1022E000E8000020800B00001C01000800127A00AA
:1022F00000000000000000000000000000000000DE
:1023000000000000040000000000000000000000C9
:0423100000000000C9
:04000005080000BD32
:00000001FF
